S0160000696E74657276656C6F6D657465722E7372656319
S11300000AC04EC018C017C05CC015C014C013C0CD
S113001012C011C010C011271FBFCFE5D0E0DEBF52
S1130020CDBF20E0A0E4B0E001C01D93A134B2072D
S1130030E1F72DD067C0E4CF41B1426041B941B18D
S1130040416041B941B14B7F41B943B1446043B9C7
S11300500895789415BB41E043BB14BB4BBD4AB52E
S11300604E7F4ABD08951EBD089513BB50E00CC0D9
S113007062B141E0462742B96FE37CE961507040C8
S1130080E9F700C000005F5F543190F3089548ED34
S11300904CBF17BF16BFD0DFE8DFDBDFE4DFFFCFE5
S11300A01F930F930FB70F9310E04F9319BD18BD13
S11300B041E04DBD14BB4F910F910FBF0F911F91A4
S11300C018951F930F930FB70F9310E04F935F93FF
S11300D040A14F5F40A94E3149F452B142E0452757
S11300E042B952B141E0452742B910A94AB54E7F01
S11300F04ABD19BD18BD5F914F910F910FBF0F916C
S10B01001F911895F894FFCF3C
S9030000FC
